{
  "_format": "hh-sol-artifact-1",
  "contractName": "STLHarvestPool",
  "sourceName": "contracts/STLHarvestPool.sol",
  "abi": [
    {
      "inputs": [
        {
          "internalType": "contract STL",
          "name": "_stlToken",
          "type": "address"
        }
      ],
      "stateMutability": "nonpayable",
      "type": "constructor"
    },
    {
      "inputs": [],
      "name": "EnforcedPause",
      "type": "error"
    },
    {
      "inputs": [],
      "name": "ExpectedPause",
      "type": "error"
    },
    {
      "inputs": [
        {
          "internalType": "address",
          "name": "from",
          "type": "address"
        },
        {
          "internalType": "uint256",
          "name": "balance",
          "type": "uint256"
        }
      ],
      "name": "InsufficientBalance",
      "type": "error"
    },
    {
      "inputs": [
        {
          "internalType": "address",
          "name": "owner",
          "type": "address"
        }
      ],
      "name": "OwnableInvalidOwner",
      "type": "error"
    },
    {
      "inputs": [
        {
          "internalType": "address",
          "name": "account",
          "type": "address"
        }
      ],
      "name": "OwnableUnauthorizedAccount",
      "type": "error"
    },
    {
      "anonymous": false,
      "inputs": [
        {
          "indexed": true,
          "internalType": "address",
          "name": "from",
          "type": "address"
        },
        {
          "indexed": true,
          "internalType": "address",
          "name": "to",
          "type": "address"
        },
        {
          "indexed": false,
          "internalType": "uint256",
          "name": "value",
          "type": "uint256"
        }
      ],
      "name": "Deposited",
      "type": "event"
    },
    {
      "anonymous": false,
      "inputs": [
        {
          "indexed": true,
          "internalType": "address",
          "name": "previousOwner",
          "type": "address"
        },
        {
          "indexed": true,
          "internalType": "address",
          "name": "newOwner",
          "type": "address"
        }
      ],
      "name": "OwnershipTransferred",
      "type": "event"
    },
    {
      "anonymous": false,
      "inputs": [
        {
          "indexed": false,
          "internalType": "address",
          "name": "account",
          "type": "address"
        }
      ],
      "name": "Paused",
      "type": "event"
    },
    {
      "anonymous": false,
      "inputs": [
        {
          "indexed": true,
          "internalType": "address",
          "name": "from",
          "type": "address"
        },
        {
          "indexed": false,
          "internalType": "uint256",
          "name": "value",
          "type": "uint256"
        }
      ],
      "name": "RewardAdded",
      "type": "event"
    },
    {
      "anonymous": false,
      "inputs": [
        {
          "indexed": false,
          "internalType": "address",
          "name": "account",
          "type": "address"
        }
      ],
      "name": "Unpaused",
      "type": "event"
    },
    {
      "anonymous": false,
      "inputs": [
        {
          "indexed": true,
          "internalType": "address",
          "name": "from",
          "type": "address"
        },
        {
          "indexed": true,
          "internalType": "address",
          "name": "to",
          "type": "address"
        },
        {
          "indexed": false,
          "internalType": "uint256",
          "name": "value",
          "type": "uint256"
        }
      ],
      "name": "Withdrawn",
      "type": "event"
    },
    {
      "inputs": [
        {
          "internalType": "uint256",
          "name": "amount",
          "type": "uint256"
        }
      ],
      "name": "addRewards",
      "outputs": [],
      "stateMutability": "nonpayable",
      "type": "function"
    },
    {
      "inputs": [
        {
          "internalType": "uint256",
          "name": "amount",
          "type": "uint256"
        }
      ],
      "name": "deposit",
      "outputs": [],
      "stateMutability": "nonpayable",
      "type": "function"
    },
    {
      "inputs": [],
      "name": "getUserRewards",
      "outputs": [
        {
          "internalType": "uint256",
          "name": "amount",
          "type": "uint256"
        }
      ],
      "stateMutability": "view",
      "type": "function"
    },
    {
      "inputs": [
        {
          "internalType": "address",
          "name": "account",
          "type": "address"
        }
      ],
      "name": "investors",
      "outputs": [
        {
          "internalType": "uint256",
          "name": "amount",
          "type": "uint256"
        },
        {
          "internalType": "uint256",
          "name": "lastDeposit",
          "type": "uint256"
        }
      ],
      "stateMutability": "view",
      "type": "function"
    },
    {
      "inputs": [],
      "name": "lastDeposit",
      "outputs": [
        {
          "internalType": "uint256",
          "name": "",
          "type": "uint256"
        }
      ],
      "stateMutability": "view",
      "type": "function"
    },
    {
      "inputs": [],
      "name": "lastReward",
      "outputs": [
        {
          "internalType": "uint256",
          "name": "",
          "type": "uint256"
        }
      ],
      "stateMutability": "view",
      "type": "function"
    },
    {
      "inputs": [],
      "name": "owner",
      "outputs": [
        {
          "internalType": "address",
          "name": "",
          "type": "address"
        }
      ],
      "stateMutability": "view",
      "type": "function"
    },
    {
      "inputs": [],
      "name": "paused",
      "outputs": [
        {
          "internalType": "bool",
          "name": "",
          "type": "bool"
        }
      ],
      "stateMutability": "view",
      "type": "function"
    },
    {
      "inputs": [],
      "name": "renounceOwnership",
      "outputs": [],
      "stateMutability": "nonpayable",
      "type": "function"
    },
    {
      "inputs": [
        {
          "internalType": "uint256",
          "name": "createAt",
          "type": "uint256"
        }
      ],
      "name": "rewards",
      "outputs": [
        {
          "internalType": "uint256",
          "name": "amount",
          "type": "uint256"
        }
      ],
      "stateMutability": "view",
      "type": "function"
    },
    {
      "inputs": [],
      "name": "stlToken",
      "outputs": [
        {
          "internalType": "contract STL",
          "name": "",
          "type": "address"
        }
      ],
      "stateMutability": "view",
      "type": "function"
    },
    {
      "inputs": [
        {
          "internalType": "uint256",
          "name": "createAt",
          "type": "uint256"
        }
      ],
      "name": "totalDepositTracking",
      "outputs": [
        {
          "internalType": "uint256",
          "name": "amount",
          "type": "uint256"
        }
      ],
      "stateMutability": "view",
      "type": "function"
    },
    {
      "inputs": [],
      "name": "totalDeposits",
      "outputs": [
        {
          "internalType": "uint256",
          "name": "",
          "type": "uint256"
        }
      ],
      "stateMutability": "view",
      "type": "function"
    },
    {
      "inputs": [],
      "name": "totalRewards",
      "outputs": [
        {
          "internalType": "uint256",
          "name": "",
          "type": "uint256"
        }
      ],
      "stateMutability": "view",
      "type": "function"
    },
    {
      "inputs": [
        {
          "internalType": "address",
          "name": "newOwner",
          "type": "address"
        }
      ],
      "name": "transferOwnership",
      "outputs": [],
      "stateMutability": "nonpayable",
      "type": "function"
    },
    {
      "inputs": [],
      "name": "withdraw",
      "outputs": [],
      "stateMutability": "nonpayable",
      "type": "function"
    }
  ],
  "bytecode": "0x60a060405234801561001057600080fd5b50604051610a23380380610a2383398101604081905261002f916100cd565b338061005557604051631e4fbdf760e01b81526000600482015260240160405180910390fd5b61005e8161007d565b506000805460ff60a01b191690556001600160a01b03166080526100fd565b600080546001600160a01b038381166001600160a01b0319831681178455604051919092169283917f8be0079c531659141344cd1fd0a4f28419497f9722a3daafe3b4186f6b6457e09190a35050565b6000602082840312156100df57600080fd5b81516001600160a01b03811681146100f657600080fd5b9392505050565b6080516108f661012d600039600081816101ba015281816102fa01528181610453015261055601526108f66000f3fe608060405234801561001057600080fd5b50600436106101005760003560e01c80637d88209711610097578063c0d1850211610066578063c0d1850214610234578063c9b171491461023c578063f2fde38b14610245578063f301af421461025857600080fd5b80637d882097146101f45780638da5cb5b146101fd578063b6b55f251461020e578063beceed391461022157600080fd5b80635c975abb116100d35780635c975abb146101545780636f7bc9be14610171578063715018a6146101ad578063720bc8f2146101b557600080fd5b80630e15561a146101055780630eae087d1461012157806336b77107146101415780633ccfd60b1461014a575b600080fd5b61010e60065481565b6040519081526020015b60405180910390f35b61010e61012f3660046107da565b60056020526000908152604090205481565b61010e60025481565b610152610278565b005b600054600160a01b900460ff166040519015158152602001610118565b61019861017f3660046107f3565b6003602052600090815260409020805460019091015482565b60408051928352602083019190915201610118565b61015261040f565b6101dc7f000000000000000000000000000000000000000000000000000000000000000081565b6040516001600160a01b039091168152602001610118565b61010e60015481565b6000546001600160a01b03166101dc565b61015261021c3660046107da565b610423565b61015261022f3660046107da565b610544565b61010e61067f565b61010e60075481565b6101526102533660046107f3565b61071f565b61010e6102663660046107da565b60046020526000908152604090205481565b3360009081526003602052604081205490036102c6573360008181526003602052604090819020549051633db7aa8160e21b8152600481019290925260248201526044015b60405180910390fd5b60006102d061067f565b33600090815260036020526040812054919250906102ee9083610839565b90506001600160a01b037f00000000000000000000000000000000000000000000000000000000000000001663a9059cbb336040516001600160e01b031960e084901b1681526001600160a01b039091166004820152602481018490526044016020604051808303816000875af115801561036d573d6000803e3d6000fd5b505050506040513d601f19601f820116820180604052508101906103919190610852565b503360009081526003602052604081205460018054919290916103b5908490610874565b9250508190555081600660008282546103ce9190610874565b9091555050604051818152339030907fd1c19fbcd4551a5edfb66d43d2e337c04837afda3482b42bdf569a8fccdae5fb906020015b60405180910390a35050565b61041761075d565b610421600061078a565b565b336000908152600360205260408120805490918391839190610446908490610839565b90915550504260018201557f00000000000000000000000000000000000000000000000000000000000000006001600160a01b03166323b872dd336040516001600160e01b031960e084901b1681526001600160a01b039091166004820152306024820152604481018590526064016020604051808303816000875af11580156104d4573d6000803e3d6000fd5b505050506040513d601f19601f820116820180604052508101906104f89190610852565b50816001600082825461050b9190610839565b9091555050604051828152309033907f8752a472e571a816aea92eec8dae9baf628e840f4929fbcc2d155e6233ff68a790602001610403565b61054c61075d565b6001600160a01b037f0000000000000000000000000000000000000000000000000000000000000000166323b872dd336040516001600160e01b031960e084901b1681526001600160a01b039091166004820152306024820152604481018490526064016020604051808303816000875af11580156105cf573d6000803e3d6000fd5b505050506040513d601f19601f820116820180604052508101906105f39190610852565b5042600781905550806006600082825461060d9190610839565b9091555050600780546000908152600460209081526040808320859055600154935483526005909152902055336001600160a01b03167fac24935fd910bc682b5ccb1a07b718cadf8cf2f6d1404c4f3ddc3662dae40e298260405161067491815260200190565b60405180910390a250565b3360009081526003602052604081205481036106985790565b33600090815260036020526040902060010154600754111561071c5760075460009081526005602090815260408083205433845260039092528220546127109291906106e5906064610887565b6106ef919061089e565b6106fa906064610887565b9050816006548261070b9190610887565b610715919061089e565b9250505090565b90565b61072761075d565b6001600160a01b03811661075157604051631e4fbdf760e01b8152600060048201526024016102bd565b61075a8161078a565b50565b6000546001600160a01b031633146104215760405163118cdaa760e01b81523360048201526024016102bd565b600080546001600160a01b038381166001600160a01b0319831681178455604051919092169283917f8be0079c531659141344cd1fd0a4f28419497f9722a3daafe3b4186f6b6457e09190a35050565b6000602082840312156107ec57600080fd5b5035919050565b60006020828403121561080557600080fd5b81356001600160a01b038116811461081c57600080fd5b9392505050565b634e487b7160e01b600052601160045260246000fd5b8082018082111561084c5761084c610823565b92915050565b60006020828403121561086457600080fd5b8151801515811461081c57600080fd5b8181038181111561084c5761084c610823565b808202811582820484141761084c5761084c610823565b6000826108bb57634e487b7160e01b600052601260045260246000fd5b50049056fea2646970667358221220c58aeb9af547ebe5c29a1dd60df1673bc6110af1d4570befa30e49691e235cda64736f6c63430008180033",
  "linkReferences": {},
  "deployedLinkReferences": {}
}